{
  "_format": "hh-sol-artifact-1",
  "contractName": "GnosisEnergy",
  "sourceName": "contracts/GnosisEnergy.sol",
  "abi": [
    {
      "inputs": [
        {
          "internalType": "uint256",
          "name": "_initialEnergyPrice",
          "type": "uint256"
        }
      ],
      "stateMutability": "nonpayable",
      "type": "constructor"
    },
    {
      "anonymous": false,
      "inputs": [
        {
          "indexed": true,
          "internalType": "address",
          "name": "user",
          "type": "address"
        },
        {
          "indexed": false,
          "internalType": "uint256",
          "name": "amount",
          "type": "uint256"
        }
      ],
      "name": "EnergyPurchased",
      "type": "event"
    },
    {
      "anonymous": false,
      "inputs": [
        {
          "indexed": false,
          "internalType": "uint256",
          "name": "currAmount",
          "type": "uint256"
        }
      ],
      "name": "PriceUpdated",
      "type": "event"
    },
    {
      "anonymous": false,
      "inputs": [
        {
          "indexed": false,
          "internalType": "uint256",
          "name": "amount",
          "type": "uint256"
        },
        {
          "indexed": true,
          "internalType": "address",
          "name": "owner",
          "type": "address"
        }
      ],
      "name": "withdrawal",
      "type": "event"
    },
    {
      "inputs": [],
      "name": "energyPrice",
      "outputs": [
        {
          "internalType": "uint256",
          "name": "",
          "type": "uint256"
        }
      ],
      "stateMutability": "view",
      "type": "function"
    },
    {
      "inputs": [
        {
          "internalType": "address",
          "name": "User",
          "type": "address"
        }
      ],
      "name": "getUserTotalPayment",
      "outputs": [
        {
          "internalType": "uint256",
          "name": "allTimePurchase",
          "type": "uint256"
        }
      ],
      "stateMutability": "view",
      "type": "function"
    },
    {
      "inputs": [],
      "name": "makePayment",
      "outputs": [],
      "stateMutability": "payable",
      "type": "function"
    },
    {
      "inputs": [],
      "name": "owner",
      "outputs": [
        {
          "internalType": "address",
          "name": "",
          "type": "address"
        }
      ],
      "stateMutability": "view",
      "type": "function"
    },
    {
      "inputs": [
        {
          "internalType": "uint256",
          "name": "_newPrice",
          "type": "uint256"
        }
      ],
      "name": "updateEnergyPrice",
      "outputs": [],
      "stateMutability": "nonpayable",
      "type": "function"
    },
    {
      "inputs": [
        {
          "internalType": "address payable",
          "name": "recipient",
          "type": "address"
        }
      ],
      "name": "withdrawFunds",
      "outputs": [],
      "stateMutability": "nonpayable",
      "type": "function"
    },
    {
      "stateMutability": "payable",
      "type": "receive"
    }
  ],
  "bytecode": "0x608060405234801561001057600080fd5b5060405161051438038061051483398101604081905261002f91610049565b600180546001600160a01b03191633179055600055610061565b60006020828403121561005a578081fd5b5051919050565b6104a4806100706000396000f3fe6080604052600436106100595760003560e01c80631045e3421461006557806368742da6146100905780638da5cb5b146100b2578063a32c1e41146100d4578063d8d79700146100f4578063df7460d9146100fc57610060565b3661006057005b600080fd5b34801561007157600080fd5b5061007a61011c565b6040516100879190610429565b60405180910390f35b34801561009c57600080fd5b506100b06100ab366004610344565b610122565b005b3480156100be57600080fd5b506100c76101ef565b604051610087919061037f565b3480156100e057600080fd5b5061007a6100ef366004610344565b6101fe565b6100b0610219565b34801561010857600080fd5b506100b0610117366004610367565b610288565b60005481565b6001546001600160a01b031633146101555760405162461bcd60e51b815260040161014c90610393565b60405180910390fd5b47806101735760405162461bcd60e51b815260040161014c90610403565b6040516001600160a01b0383169082156108fc029083906000818181858888f193505050501580156101a9573d6000803e3d6000fd5b50816001600160a01b03167f190d7c555f6ea3d9f358fe9f431c2c57019f9635fa98c775bbceba51fd933c34826040516101e39190610429565b60405180910390a25050565b6001546001600160a01b031681565b6001600160a01b031660009081526002602052604090205490565b60005434101561023b5760405162461bcd60e51b815260040161014c906103e0565b61024533346102f2565b336001600160a01b03167f4832f573ecca0a74a30b01941ee5d9ab5e612c3869299f1b635f58b4cc98a5143460405161027e9190610429565b60405180910390a2565b6001546001600160a01b031633146102b25760405162461bcd60e51b815260040161014c90610393565b60008190556040517f66cbca4f3c64fecf1dcb9ce094abcf7f68c3450a1d4e3a8e917dd621edb4ebe0906102e7908390610429565b60405180910390a150565b33318111156103135760405162461bcd60e51b815260040161014c906103b9565b6001600160a01b0382166000908152600260205260408120805483929061033b908490610432565b90915550505050565b600060208284031215610355578081fd5b813561036081610456565b9392505050565b600060208284031215610378578081fd5b5035919050565b6001600160a01b0391909116815260200190565b6020808252600c908201526b155b985d5d1a1bdc9a5e995960a21b604082015260600190565b6020808252600d908201526c1c9958dbdc990819985a5b1959609a1b604082015260600190565b6020808252600990820152686c6f772066756e647360b81b604082015260600190565b6020808252600c908201526b7a65726f2062616c616e636560a01b604082015260600190565b90815260200190565b6000821982111561045157634e487b7160e01b81526011600452602481fd5b500190565b6001600160a01b038116811461046b57600080fd5b5056fea26469706673582212202c9f59222545877e284847d005bce450d3d907aa7fde2029d61a676a071b891564736f6c63430008000033",
  "linkReferences": {},
  "deployedLinkReferences": {}
}